:020000040800F2
:10000000C0070020890100081B070008130700082B
:100010001707000839020008050900080000000061
:100020000000000000000000000000001F070008A2
:100030003D020008000000001D070008210700081D
:10004000A3010008A3010008A3010008A301000800
:10005000A3010008A3010008A3010008A3010008F0
:10006000A3010008A3010008A3010008A3010008E0
:10007000A3010008A3010008A3010008A3010008D0
:10008000A3010008A3010008A3010008A3010008C0
:10009000A3010008A3010008A3010008A3010008B0
:1000A000A3010008A3010008A3010008A3010008A0
:1000B00081070008A3010008A3010008A3010008AC
:1000C000A3010008A3010008A3010008A301000880
:1000D000A3010008F5080008A3010008A301000817
:1000E000A3010008A3010008A301000800F002F822
:1000F00000F03AF80AA090E8000C82448344AAF188
:100100000107DA4501D100F02FF8AFF2090EBAE885
:100110000F0013F0010F18BFFB1A43F0010318473B
:10012000F007000010080000103A24BF78C878C11A
:10013000FAD8520724BF30C830C144BF04680C60ED
:10014000704700000023002400250026103A28BF35
:1001500078C1FBD8520728BF30C148BF0B60704739
:100160001FB51FBD10B510BD00F033F81146FFF7E5
:10017000F7FF00F0CBFB00F051F803B4FFF7F2FFFC
:1001800003BC00F0C1FB0000094880470948004754
:10019000FEE7FEE7FEE7FEE7FEE7FEE7FEE7FEE737
:1001A000FEE7FEE704480549054A064B7047000094
:1001B00029070008ED000008C0010020C00700204A
:1001C000C0030020C003002070477047704770478D
:1001D0007047754600F02CF8AE4605006946534658
:1001E00020F00700854618B020B5FFF7DBFFBDE81B
:1001F00020404FF000064FF000074FF000084FF08E
:10020000000B21F00701AC46ACE8C009ACE8C0091E
:10021000ACE8C009ACE8C0098D46704710B504468B
:10022000AFF300802046BDE81040FFF7A6BF0000F6
:10023000004870475C01002000BFFEE770470000E7
:1002400070B50446002594F82100022803D004204C
:10025000A063012548E02068006820F00E002168B6
:1002600008602068006820F00100216808601F49CC
:100270002068884201D1012026E01C491431206801
:10028000884201D110201FE0184928312068884297
:1002900001D1801518E015493C312068884201D110
:1002A000801411E0114950312068884202D14FF486
:1002B000803009E00D4964312068884202D14FF452
:1002C000801001E04FF08070084908394860012033
:1002D00084F8210000BF002084F8200000BF606B7C
:1002E00010B12046616B8847284670BD0800024067
:1002F00003480068034909780844014908607047C9
:10030000080000201000002070477047704710B5AB
:10031000044620680069C0F34000D8B12068C06876
:10032000C0F34000B0B16FF0020021680861012005
:1003300020772068806900F0030018B12046FFF79D
:10034000E5FF05E0204600F0ADF8204600F0ABF8F0
:100350000020207720680069C0F38000D8B12068B1
:10036000C068C0F38000B0B16FF00400216808617C
:10037000022020772068806900F4407018B1204680
:10038000FFF7C4FF05E0204600F08CF8204600F09F
:100390008AF80020207720680069C0F3C000D8B137
:1003A0002068C068C0F3C000B0B16FF008002168D9
:1003B0000861042020772068C06900F0030018B1AC
:1003C0002046FFF7A3FF05E0204600F06BF820462B
:1003D00000F069F80020207720680069C0F3001061
:1003E000D8B12068C068C0F30010B0B16FF0100041
:1003F00021680861082020772068C06900F44070F7
:1004000018B12046FFF782FF05E0204600F04AF8C9
:10041000204600F048F8002020772068006900F0AE
:10042000010058B12068C06800F0010030B16FF0E1
:10043000010021680861204600F036F82068006954
:10044000C0F3C01058B12068C068C0F3C01030B10C
:100450006FF08000216808612046FFF755FF206893
:100460000069C0F3801058B12068C068C0F38010E4
:1004700030B16FF0400021680861204600F019F8A3
:1004800020680069C0F3401058B12068C068C0F30C
:10049000401030B16FF02000216808612046FFF75E
:1004A00034FF10BD7047704710B50446FFF720FFBA
:1004B00010BD7047704700002DE9F04704462068E2
:1004C00005682068C668206847694FF00008C14683
:1004D00005F00F08B8F1000F0AD105F0200038B17F
:1004E00006F0200020B1204600F07CF9BDE8F0873E
:1004F000B8F1000F6DD007F0010018B906F4907044
:10050000002866D005F0010030B106F4807018B103
:10051000E06B40F00100E06305F0040030B107F04B
:10052000010018B1E06B40F00200E06305F002004A
:1005300030B107F0010018B1E06B40F00400E06357
:1005400005F0080030B107F0010018B1E06B40F091
:100550000800E063E06B68B305F0200028B106F006
:10056000200010B1204600F03DF920684069C0F33A
:100570008019E06B00F0080010B9B9F1000F22D02B
:10058000204600F00FF92068406900F04000B0B14B
:100590002068406920F0400021684861606B50B1DC
:1005A0001748616B4863606BFFF74AFE10B1606BE0
:1005B000416B88470CE02046FFF77CFF08E02046AF
:1005C000FFF778FF04E02046FFF774FF0020E063A8
:1005D0008CE705F0800030B106F0800018B12046AD
:1005E00000F053F982E705F0400030B106F040001A
:1005F00018B1204600F0E6F878E700BF76E7000083
:100600009107000810B5034693F83A0020282FD12F
:1006100001B10AB9012010BD00BF93F838000128CC
:1006200001D10220F7E7012083F8380000BF99626A
:100630009A85DA850020D863222083F83A0000BF2B
:10064000002083F8380000BF1868C06840F480704C
:100650001C68E0601868406940F001001C68606137
:100660001868C06840F020001C68E0600020D2E7F5
:100670000220D0E710B504462049206888423BD1CB
:100680001F48008800F4004088BB1D48008800F423
:10069000804070B11B4800780A2803D00020184918
:1006A000088024E01648008840F40040144908807F
:1006B0001DE0144800780D2806D11148008840F448
:1006C00080400F49088012E00E4800780C490988E4
:1006D000C1F30D010C4A505409480088401C0849D8
:1006E000088008460088C72801DD00200880012214
:1006F00004490648FFF786FF10BD0000003801409E
:10070000040000200600002014000020DC0000206F
:10071000704700BFFEE700BFFEE7704770477047B5
:1007200010B5FFF7E5FD10BD1148006840F001006D
:100730000F490860084640680E4908400C49486067
:10074000084600680C4908400949086008460068E6
:1007500020F4802008600846406820F4FE004860CD
:100760004FF41F008860C803044908607047000008
:10077000001002400000FFF8FFFFF6FE08ED00E069
:1007800010B50248FFF7C3FD10BD00001C0100209A
:1007900070B505466C6A0020E085E0842046FFF7CE
:1007A00089FE70BD0168C96821F490710268D1604A
:1007B0000168496921F0010102685161202180F836
:1007C0003A10704710B504462068C06820F0400019
:1007D0002168C860202084F839002046FFF798FF80
:1007E000002010BD70B5044694F83A0022284AD182
:1007F000A068B0F5805F13D1A56A206940B9206870
:100800004068C0F308002880A06A801CA06219E03C
:1008100020684068C0B22880A06A401CA06211E035
:10082000206938B920684068C1B2A26A501CA06231
:10083000117007E02068406800F07F01A26A501C38
:10084000A0621170E08D401E80B2E085C8B92068BA
:10085000C06820F020002168C8602068C06820F4CB
:1008600080702168C8602068406920F0010021681C
:100870004861202084F83A002046FFF7FBFE002064
:1008800070BD0020FCE70220FAE7014691F839002C
:1008900021282CD18868B0F5805F0FD10A6A1088B2
:1008A000C0F308000B685860086918B9086A801C12
:1008B000086209E0086A401C086205E00B6A581CDF
:1008C000086218780B685860C88C401E80B2C884D3
:1008D00058B90868C06820F080000B68D8600868C4
:1008E000C06840F040000B68D860002070470220CC
:1008F000FCE7000010B50248FFF7DEFD10BD000068
:10090000DC00002000BFFEE700BF704700BFFEE72D
:100910003009000800000020140000002801000831
:100920004409000814000020AC070000440100083E
:1009300000000000000000000000000010000000A7
:0409400001000000B2
:04000005080000ED02
:00000001FF
