:020000040800F2
:100000004007002089010008431800083B18000839
:100010003F18000885020008F120000800000000D9
:10002000000000000000000000000000D91B0008D4
:100030008902000800000000AD1B0008DB1B00085F
:10004000A3010008A3010008A3010008A301000800
:10005000A3010008A3010008A3010008A3010008F0
:10006000A3010008A3010008A3010008A3010008E0
:10007000A3010008A3010008A3010008A3010008D0
:10008000A3010008A3010008A3010008A3010008C0
:10009000A3010008A3010008A3010008A3010008B0
:1000A000A3010008A3010008A3010008A3010008A0
:1000B0003D1C0008A3010008A3010008A3010008DB
:1000C000A3010008A3010008A3010008A301000880
:1000D000A3010008D5200008A3010008A30100081F
:1000E000D1020008A3010008A301000800F002F8F3
:1000F00000F03AF80AA090E8000C82448344AAF188
:100100000107DA4501D100F02FF8AFF2090EBAE885
:100110000F0013F0010F18BFFB1A43F0010318473B
:10012000A0270000C0270000103A24BF78C878C17B
:10013000FAD8520724BF30C830C144BF04680C60ED
:10014000704700000023002400250026103A28BF35
:1001500078C1FBD8520728BF30C148BF0B60704739
:100160001FB51FBD10B510BD00F05AF81146FFF7BE
:10017000F7FF02F03DF800F078F803B4FFF7F2FF64
:1001800003BC01F0D3FF000009488047094800473D
:10019000FEE7FEE7FEE7FEE7FEE7FEE7FEE7FEE737
:1001A000FEE7FEE704480549054A064B7047000094
:1001B000E51B0008ED00000840010020400700207A
:1001C000400300204003002070474FF0000200B5BC
:1001D000134694469646203922BFA0E80C50A0E86A
:1001E0000C50B1F12001BFF4F7AF090728BFA0E818
:1001F0000C5048BF0CC05DF804EB890028BF40F8E4
:10020000042B08BF704748BF20F8022B11F0804F25
:1002100018BF00F8012B7047704770477047704750
:10022000754600F02BF8AE4605006946534620F0AF
:100230000700854618B020B5FFF7B4FFBDE82040A1
:100240004FF000064FF000074FF000084FF0000B92
:1002500021F00701AC46ACE8C009ACE8C009ACE845
:10026000C009ACE8C0098D46704710B50446AFF32D
:1002700000802046BDE81040FFF77FBF0048704770
:10028000DC00002000BFFEE7704700B5034603E036
:100290004FF47A7000F005F8181EA3F10103F7D1AE
:1002A00000BD00EBC001C9004FF0E0225161002108
:1002B00091610521116100BF4FF0E021096901F44E
:1002C00080310029F8D004214FF0E02211617047FD
:1002D00010B54FF4005000F06FF84FF40050014992
:1002E000086010BD1404014070B50446002594F860
:1002F0002100022803D00420A063012548E02068E3
:10030000006820F00E00216808602068006820F076
:100310000100216808601F492068884201D101203E
:1003200026E01C4914312068884201D110201FE0CA
:10033000184928312068884201D1801518E01549F4
:100340003C312068884201D1801411E011495031BC
:100350002068884202D14FF4803009E00D496431B1
:100360002068884202D14FF4801001E04FF0807085
:10037000084908394860012084F8210000BF0020A6
:1003800084F8200000BF606B10B12046616B884785
:10039000284670BD0800024010B50446B4F5005F61
:1003A00007D11420FFF771FF4FF40051014800F00E
:1003B000A1F910BD000C014010B5044604480068C6
:1003C000204020B1024804602046FFF7E5FF10BD41
:1003D000140401402DE9F8470346002294466EE1DB
:1003E0004FF0010808FA02F4D1F8008008EA04008E
:1003F000A0427DD1DFF8DCA2D1F80480A8EB0A0985
:10040000D0453AD014DCB8F1030F50D009DCB8F174
:10041000000F31D0B8F1010F1CD0B8F1020F49D153
:1004200020E0B8F1110F18D0B8F1120F42D11EE040
:10043000B9F5881F25D006DCB9F5803F20D0B9F585
:10044000801F37D11AE0B9F5001F18D0B9F5041F85
:1004500030D117E0D1F80CC02DE0D1F80C8008F1B4
:10046000040C28E0D1F80C8008F1080C23E0D1F846
:100470000C8008F10C0C1EE000BF00BF00BF00BFE5
:1004800000BF00BFD1F80880B8F1000F02D14FF0D3
:10049000040C0BE0D1F80880B8F1010F03D14FF044
:1004A000080C1C6102E04FF0080C5C6103E04FF0A7
:1004B000000C00E000BF00BFFF2801D8984601E013
:1004C00003F104084646FF2802D84FEA820803E0F9
:1004D000A2F108084FEA88084746D6F800804FF096
:1004E0000F0909FA07F928EA09080CFA07F900E0E8
:1004F00088E048EA0908C6F80080D1F8048008F0CE
:100500008058B8F1805F7DD100BFDFF8CC81D8F88A
:10051000188048F00108DFF8C091C9F81880C84673
:10052000D8F8188008F00108CDF8008000BF00BF9F
:100530004FEAB9384FEA920958F829504FEA8278C1
:100540004FEA18794FF00F0808FA09F825EA08056C
:10055000DFF88881434502D14FF0000816E0DFF84C
:100560008081434502D14FF001080FE0DFF874812C
:10057000434502D14FF0020808E0DFF86C814345A3
:1005800002D14FF0030801E04FF004084FEA8279EE
:100590004FEA197908FA09F848EA0505DFF84C81AD
:1005A0004FEA920948F82950D1F8048008F48038BD
:1005B000B8F5803F0AD1DFF83881D8F8008048EAE2
:1005C0000008DFF82C91C9F8008009E0DFF82081ED
:1005D000D8F8008028EA0008DFF81491C9F80080F4
:1005E000D1F8048008F40038B8F5003F10D1DFF8E6
:1005F000008108F10408D8F8008048EA0008DFF814
:10060000F09000E05AE009F10409C9F800800DE01B
:10061000DFF8DC8008F10408D8F8008028EA000838
:10062000DFF8CC9009F10409C9F80080D1F8048002
:1006300008F48018B8F5801F0ED1DFF8B48008F1F7
:100640000808D8F8008048EA0008DFF8A49009F10B
:100650000809C9F800800DE0DFF8948008F1080867
:10066000D8F8008028EA0008DFF8849009F108092A
:10067000C9F80080D1F8048008F40018B8F5001F0C
:100680000ED1DFF86C8008F10C08D8F8008048EA39
:100690000008DFF85C9009F10C09C9F800800DE052
:1006A000DFF84C8008F10C08D8F8008028EA000830
:1006B000DFF83C9009F10C09C9F80080521CD1F810
:1006C000008028FA02F8B8F1000F7FF489AEBDE887
:1006D000F8870000000011100010024000080140DF
:1006E000000C0140001001400014014008000140CE
:1006F00000040140024693680B400BB1012000E06A
:10070000002070470AB1016101E00B0403617047EA
:10071000014800687047000000000020034800689E
:100720000349097808440149086070470000002027
:100730000800002010B50848006840F01000064985
:100740000860032000F080F80F2000F007F800F0A8
:100750002BF8002010BD00000020024070B50446B8
:100760000E4800784FF47A71B1FBF0F00C4909683B
:10077000B1FBF0F5284600F0BDFB08B1012070BDCB
:10078000102C07D200222146501E00F01EF805480A
:10079000046001E00120F2E70020F0E708000020FB
:1007A0001800002004000020704701460846002879
:1007B00009DB00F01F0301229A4043099B0003F16B
:1007C000E023C3F8002100BF70472DE9F05F8046A9
:1007D0000D461646002701F08DFC074639462A468D
:1007E000334601F00700C0F1070ABAF1040F02D93D
:1007F0004FF0040A01E0C0F1070AD14600F1040AF3
:10080000BAF1070F02D24FF0000A01E0A0F1030A8B
:10081000D4464FF0010A0AFA09FAAAF1010A0AEAD3
:10082000020A0AFA0CFA4FF0010B0BFA0CFBABF1BF
:10083000010B0BEA030B4AEA0B042146404601F088
:1008400061FCBDE8F09F000000BF00F00702064B0E
:1008500019684FF6FF031940044B0B4343EA02218A
:10086000014B196000BF70470CED00E00000FA0575
:1008700070B504460D460CB9012070BD5A48006899
:1008800000F00700A8420ED25748006820F0070089
:100890002843554908600846006800F00700A84250
:1008A00001D00120E9E7207800F0020002281DD1E4
:1008B000207800F00400042805D14C48406840F43A
:1008C000E0604A494860207800F00800082805D117
:1008D0004648406840F46050444948604348406896
:1008E00020F0F000A168084340494860207800F0FB
:1008F000010078B36068012806D13C48006800F424
:10090000003090B90120B8E76068022806D1374866
:10091000006800F0007040B90120AEE7334800687D
:1009200000F0020008B90120A7E73048406820F035
:100930000300616808432D494860FFF7E9FE064659
:1009400009E0FFF7E5FE801B41F28831884202D9B9
:10095000032092E707E02548406800F00C0061683A
:10096000B0EB810FEDD12048006800F00700A842ED
:100970000ED91D48006820F0070028431A49086076
:100980000846006800F00700A84201D0012074E783
:10099000207800F00400042807D11448406820F4AF
:1009A000E060E168084311494860207800F00800E1
:1009B000082808D10D48406820F46050216940EAB9
:1009C000C1000A49486000F019F808494968C1F3B4
:1009D0000311074A515CC840064908600648006890
:1009E000FFF7BCFE002048E7002002400010024054
:1009F000A62800081800002004000020F0B585B0EB
:100A00000FF26C0C9CE8E01001A8A0E8E0101CA517
:100A10002D68009500210022002300240020194D9C
:100A2000696801F00C05F5B1042D02D0082D19D12B
:100A300001E0154819E001ADC1F38346AC5D01F456
:100A4000803555B10F4D6D68C5F340451DF8052043
:100A50000D4D6543B5FBF2F302E00C4D04FB05F3CD
:100A6000184602E000BF084800BF00BF05B0F0BD57
:100A700002030405060708090A0B0C0D0E0F1010DF
:100A8000010200000010024000127A0000093D003F
:100A9000F8B504460CB90120F8BD207800F001003B
:100AA000002878D0F848406800F00C0004280CD0EA
:100AB000F548406800F00C00082811D1F248406861
:100AC00000F48030B0F5803F0AD1EF48006800F4B0
:100AD000003000285FD0606800285CD10120DBE78F
:100AE00000BF6068B0F5803F06D1E748006840F479
:100AF0008030E549086028E0606858B9E24800683D
:100B000020F48030E04908600846006820F4802026
:100B100008601AE06068B0F5A02F0BD1DA480068D1
:100B200040F48020D84908600846006840F48030CE
:100B300008600AE0D448006820F48030D249086098
:100B40000846006820F48020086000BF606888B113
:100B5000FFF7DEFD054606E0FFF7DAFD401B6428DF
:100B600001D9032098E7C848006800F40030002845
:100B7000F2D010E0FFF7CCFD054606E0FFF7C8FD18
:100B8000401B642801D9032086E7BF48006800F4B1
:100B900000300028F2D1207800F00200022857D15E
:100BA000B948406800F00C0050B1B748406800F008
:100BB0000C00082818D1B448406800F4803098B977
:100BC000B148006800F0020020B12069012801D07E
:100BD000012061E7AC48006820F0F800616940EA54
:100BE000C100A949086033E02069E8B10120A749A4
:100BF0000860FFF78DFD054606E0FFF789FD401B05
:100C0000022801D9032047E79F48006800F002004E
:100C10000028F2D09C48006820F0F800616940EAA2
:100C2000C1009949086013E0002098490860FFF767
:100C30006FFD054606E0FFF76BFD401B022801D95A
:100C4000032029E79048006800F002000028F2D154
:100C5000207800F0080008282DD1A069B8B1012043
:100C60008B490860FFF754FD054606E0FFF750FD8D
:100C7000401B022801D903200EE78348406A00F098
:100C800002000028F2D0012000F092FF13E00020C3
:100C90007F490860FFF73CFD054606E0FFF738FD99
:100CA000401B022801D90320F6E67748406A00F08D
:100CB00002000028F2D1207800F00400042873D14B
:100CC00000277148C06900F0805070B900BF6E48BD
:100CD000C06940F080506C49C8610846C06900F0A6
:100CE0008050009000BF00BF01276A48006800F4F0
:100CF0008070B0B96748006840F48070654908604A
:100D0000FFF706FD054606E0FFF702FD401B6428DD
:100D100001D90320C0E65F48006800F48070002815
:100D2000F2D000BFE068012806D15748006A40F0C1
:100D300001005549086227E0E06858B95248006A46
:100D400020F00100504908620846006A20F00400C3
:100D5000086219E0E06805280BD14B48006A40F0B2
:100D60000400494908620846006A40F00100086230
:100D70000AE04548006A20F001004349086208463D
:100D8000006A20F00400086200BFE068A0B1FFF72D
:100D9000BFFC054609E0FFF7BBFC401B41F2883170
:100DA000884202D9032077E622E03748006A00F043
:100DB00002000028EFD012E0FFF7AAFC054608E089
:100DC000FFF7A6FC401B41F28831884201D903207D
:100DD00062E62D48006A00F002000028F0D1012FE1
:100DE00005D12948C06920F080502749C86100BF5B
:100DF000E069C8B32448406800F00C00082860D0BF
:100E0000E069022848D1002020490866FFF780FCED
:100E1000054606E0FFF77CFC401B022801D90320B1
:100E20003AE61948006800F000700028F2D1206A04
:100E3000B0F5803F07D11448406820F40030A16825
:100E4000084311494860D4E9080108430E4949683C
:100E500021F4741108430C49486001200B490866CD
:100E6000FFF756FC054607E03DE0FFF751FC401B4D
:100E7000022801D903200FE60348006800F0007043
:100E80000028F2D02FE00000001002400000424293
:100E90008004424200700040002014490866FFF7B9
:100EA00037FC054606E0FFF733FC401B022801D95A
:100EB0000320F1E50E48006800F000700028F2D130
:100EC00011E0E069012800D1E6E50948466806F42A
:100ED0008031206A814204D106F47011606A814237
:100EE00001D00120D8E50020D6E5000000004242F4
:100EF0000010024070B504462546681EB0F1807FA0
:100F000001D301200FE0681E4FF0E02148610F215E
:100F10004FF0FF3001F0F6F800204FF0E02188613B
:100F200007200861002070BD7047704710B5044667
:100F30002068B0F1804F63D13248007800F0800023
:100F400000285DD12F48007800F04000D0B12D4836
:100F5000007840F080002B4908700C212A4800F0EE
:100F60006BFB2A49088028480068006A20F400507A
:100F700025490968086224480068006A224909680E
:100F800008623DE000201F490870204908801D4884
:100F9000007840F040001B49087000BF1A48006804
:100FA000006A41F21111084068B917480068006AE8
:100FB0008910084038B914480068006820F0010022
:100FC00011490968086000BF00200F49096848629C
:100FD0000D480068006A20F400500B490968086257
:100FE00009480068006A40F400500749096808622F
:100FF00005480068006840F001000349096808607E
:1010000010BD0000120000209C00002014000020F1
:101010002DE9F04104460D46164600BF94F83C0009
:10102000012802D10220BDE8F081012084F83C00B3
:1010300000BF022084F83D0096B9EB68D5E90012A4
:10104000206800F00BFF2068806920F00C00216808
:10105000886120688069A9680843216888613DE04B
:10106000042E13D1EB68D5E90012206800F02AFFA6
:101070002068806920F44060216888612068806968
:10108000A96840EA01202168886127E0082E12D172
:10109000EB68D5E90012206800F031FF2068C069D4
:1010A00020F00C002168C8612068C069A968084365
:1010B0002168C86112E0EB68D5E90012206800F0F1
:1010C0003AFF2068C06920F440602168C861206848
:1010D000C069A96840EA01202168C861012084F83C
:1010E0003D0000BF002084F83C0000BF00BF9AE72D
:1010F00010B504460CB9012010BD94F83D0028B984
:10110000002084F83C00204600F00CF8022084F80F
:101110003D00211D206800F099FD012084F83D006C
:101120000020E9E710B586B004462068B0F1804F92
:101130002FD100BF1848C06940F001001649C861AE
:101140000846C06900F00100019000BF00BF00BF69
:101150000846806940F0040088610846806900F014
:101160000400019000BF00BF0820029000200390FF
:10117000022004900320059002A90848FFF72AF9ED
:10118000032201211C20FFF720FB1C20FFF70DFB91
:1011900000BF06B010BD0000001002400008014072
:1011A00070B504460D4635B1042D0BD0082D10D076
:1011B0000C2D1CD114E02068C06840F002002168AA
:1011C000C86015E02068C06840F004002168C8606D
:1011D0000EE02068C06840F008002168C86007E0A1
:1011E0002068C06840F010002168C86000E000BFBF
:1011F00000BF01222946206800F062FD2068806857
:1012000000F00706062E05D02068006840F00100B7
:1012100021680860002070BD10B504462068006990
:10122000C0F34000D8B12068C068C0F34000B0B13E
:101230006FF0020021680861012020772068806932
:1012400000F0030018B12046FFF770FE05E02046CD
:1012500000F0ADF8204600F08DF9002020772068DE
:101260000069C0F38000D8B12068C068C0F3800076
:10127000B0B16FF004002168086102202077206877
:10128000806900F4407018B12046FFF74FFE05E07A
:10129000204600F08CF8204600F06CF90020207702
:1012A00020680069C0F3C000D8B12068C068C0F3EE
:1012B000C000B0B16FF008002168086104202077F9
:1012C0002068C06900F0030018B12046FFF72EFE29
:1012D00005E0204600F06BF8204600F04BF90020B6
:1012E000207720680069C0F30010D8B12068C0687A
:1012F000C0F30010B0B16FF0100021680861082041
:1013000020772068C06900F4407018B12046FFF7CC
:101310000DFE05E0204600F04AF8204600F02AF9CC
:10132000002020772068006900F0010058B1206893
:10133000C06800F0010030B16FF001002168086161
:10134000204600F03FF920680069C0F3C01058B192
:101350002068C068C0F3C01030B16FF08000216811
:1013600008612046FFF7E0FD20680069C0F38010A7
:1013700058B12068C068C0F3801030B16FF04000F1
:1013800021680861204600F070F920680069C0F308
:10139000401058B12068C068C0F3401030B16FF001
:1013A0002000216808612046FFF7BFFD10BD70478F
:1013B00070B504460D46164600BF94F83C0001285F
:1013C00001D1022070BD012084F83C0000BF022042
:1013D00084F83D0036B1042E1BD0082E31D00C2EDF
:1013E0005ED145E02946206800F07CFC20688069D9
:1013F00040F00800216888612068806920F00400BE
:1014000021688861206880692969084321688861AA
:1014100047E02946206800F095FC2068806940F488
:101420000060216888612068806920F480602168FC
:10143000886120688069296940EA01202168886103
:101440002FE02946206800F0B1FC2068C06940F018
:1014500008002168C8612068C06920F00400216884
:10146000C8612068C069296908432168C86118E01B
:101470002946206800F0CEFC2068C06940F4006076
:101480002168C8612068C06920F480602168C86153
:101490002068C069296940EA01202168C86100E02C
:1014A00000BF00BF012084F83D0000BF002084F889
:1014B0003C0000BF00BF85E710B504460CB9012011
:1014C00010BD94F83D0028B9002084F83C00204667
:1014D00000F00CF8022084F83D00211D206800F087
:1014E000B5FB012084F83D000020E9E710B586B087
:1014F00004461D492068884234D100BF1B48C0699A
:1015000040F002001949C8610846C06900F00200B5
:10151000019000BF00BF00BF0846806940F0040092
:1015200088610846806900F00400019000BF00BF98
:1015300000BF0846806940F0010088610846806964
:1015400000F00100019000BF00BF80200290022047
:101550000390012004900320059002A90448FEF79F
:1015600039FF00BF06B010BD00040040001002406B
:10157000000801407047000070B504460E46012285
:101580003146206800F09CFB0D492068884201D15B
:10159000012000E0002028B12068406C40F40040A9
:1015A000216848642068806800F00705062D05D092
:1015B0002068006840F0010021680860002070BDCC
:1015C000002C01400168B1F1804F2DD117490978F5
:1015D00001F0800111BB1549097801F04001E9B122
:1015E0001249097801F03F013F2918D110490968D3
:1015F000096A21F400510E4A126811620C49096807
:10160000096A0B4A126811620849097841F08001A1
:10161000064A11704FF6FF71064A118004E0034933
:101620000978491C014A117070470000120000201F
:101630009C000020140000200246002031B1042943
:1016400007D0082908D00C290CD108E01368586B82
:1016500009E01368986B06E01368D86B03E0136821
:10166000186C00E000BF00BF704770477047000073
:101670002DE9F0470446206805682068C6682068A0
:1016800047694FF00008C14605F00F08B8F1000F98
:101690000AD105F0200038B106F0200020B1204624
:1016A00000F091FCBDE8F087B8F1000F6DD007F0B5
:1016B000010018B906F49070002866D005F001000A
:1016C00030B106F4807018B1E06B40F00100E063C7
:1016D00005F0040030B107F0010018B1E06B40F0F4
:1016E0000200E06305F0020030B107F0010018B11C
:1016F000E06B40F00400E06305F0080030B107F053
:10170000010018B1E06B40F00800E063E06B68B3E3
:1017100005F0200028B106F0200010B1204600F0AE
:1017200052FC20684069C0F38019E06B00F00800AB
:1017300010B9B9F1000F22D0204600F024FC206837
:10174000406900F04000B0B12068406920F04000DE
:1017500021684861606B50B11748616B4863606BEA
:10176000FEF7C2FD10B1606B416B88470CE020466C
:10177000FFF77CFF08E02046FFF778FF04E02046F3
:10178000FFF774FF0020E0638CE705F0800030B1C4
:1017900006F0800018B1204600F068FC82E705F0F2
:1017A000400030B106F0400018B1204600F0FBFBCD
:1017B00078E700BF76E70000731F000810B5034606
:1017C00093F83A0020282FD101B10AB9012010BDA9
:1017D00000BF93F83800012801D10220F7E701206B
:1017E00083F8380000BF99629A85DA850020D863B3
:1017F000222083F83A0000BF002083F8380000BFA1
:101800001868C06840F480701C68E060186840691F
:1018100040F001001C6860611868C06840F020005A
:101820001C68E0600020D2E70220D0E70121014AD5
:101830001170704711000020704700BFFEE700BF25
:10184000FEE7704770B500240EE00021204600F04E
:1018500020F9002504E0002000F098F9681CC5B2CA
:10186000802DF8DB601CC4B2082CEEDB70BD0000DC
:1018700000B585B000BF00BF1748806940F0080080
:10188000154988610846806900F00800009000BF93
:1018900000BF00BF11200290032004908815019022
:1018A00001A90E48FEF796FD4FF40070019001A9C2
:1018B0000A48FEF78FFD00BF012211020748FEF71C
:1018C00021FF00BF00BF012251020448FEF71AFFAA
:1018D00000BF05B000BD000000100240000C014038
:1018E00070B50546002422E000BF8020204128403A
:1018F00028B1012251021748FEF704FF05E000223B
:101900004FF400711348FEF7FDFE00BF00BF012237
:1019100011021048FEF7F6FE00BF00BF00224FF490
:1019200080710C48FEF7EEFE00BF601CC4B2082CAC
:10193000DADB00BF012211020648FEF7E3FE00BF1A
:1019400000BF00224FF480710248FEF7DBFE00BFAB
:1019500070BD0000000C014010B500BF0122510213
:101960000D48FEF7CFFE00BF00BF012211020A485A
:10197000FEF7C8FE00BF00BF00224FF4007106480A
:10198000FEF7C0FE00BF00BF00224FF48071024886
:10199000FEF7B8FE00BF10BD000C014010B500BF3F
:1019A00000224FF400710948FEF7ACFE00BF00BFF3
:1019B000012211020548FEF7A5FE00BF00BF01226B
:1019C00051020248FEF79EFE00BF10BD000C014010
:1019D00070B5002406E0002500E06D1CB5F57A7FA7
:1019E000FBD3641CB4F57A7FF5D3FFF741FFAE203B
:1019F00000F0BCF8D52000F0B9F8802000F0B6F86F
:101A0000A82000F0B3F83F2000F0B0F8D32000F099
:101A1000ADF8002000F0AAF8402000F0A7F8A120BF
:101A200000F0A4F8C82000F0A1F8DA2000F09EF839
:101A3000122000F09BF8812000F098F8CF2000F0F1
:101A400095F8D92000F092F8F12000F08FF8DB2013
:101A500000F08CF8302000F089F8A42000F086F81F
:101A6000A62000F083F88D2000F080F8142000F00C
:101A70007DF8AF2000F07AF8FFF7E4FE70BD10B5F6
:101A80000246012000E050430B1EA1F10101FAD1F2
:101A900010BD70B505460C4645F0B00000F066F884
:101AA000102141EA141000F061F804F00F0000F07A
:101AB0005DF870BD2DE9F04105460E461746721ED1
:101AC000D206110E6A1E5206100EFFF7E2FF002426
:101AD00009E0A7F12001134A02EB0111085D00F0B3
:101AE00055F8601CC4B2082CF3DB721ED206110E2E
:101AF0006A1E012303EB4202D0B2FFF7CAFF0024A3
:101B00000BE0A7F12001074A02EB011204F10801E2
:101B1000505C00F03BF8601CC4B2082CF1DBBDE85F
:101B2000F0810000B62200082DE9F04780460E46FD
:101B300017461D46002415E0281B411E0A20FFF70A
:101B40009EFFB7FBF0F00A21B0FBF1F201FB12009F
:101B500000F130093019C1B24A464046FFF7AAFFEA
:101B6000601CC4B2AC42E7DBBDE8F08710B50446A8
:101B7000FFF7F2FE7820FFF7B3FE0020FFF7B0FE7C
:101B80002046FFF7ADFEFFF709FF10BD10B5044674
:101B9000FFF7E2FE7820FFF7A3FE4020FFF7A0FE4C
:101BA0002046FFF79DFEFFF7F9FE10BD70470000CD
:101BB00008B508490968C9084FF47A72B1FBF2F117
:101BC0004143009100BF00BF00994A1E00920029C6
:101BD000F9D108BD18000020704710B5FEF79EFD32
:101BE00010BD00001148006840F001000F49086076
:101BF000084640680E4908400C494860084600689D
:101C00000C490840094908600846006820F4802013
:101C100008600846406820F4FE0048604FF41F004A
:101C20008860C80304490860704700000010024043
:101C30000000FFF8FFFFF6FE08ED00E010B50248D7
:101C4000FFF7EAFA10BD00009C00002010B5026802
:101C5000184B984208D0B0F1804F05D0164B9842EF
:101C600002D0164B984203D122F070024B681A43FF
:101C7000104B984208D0B0F1804F05D00E4B9842DF
:101C800002D00E4B984203D122F44072CB681A4323
:101C900022F080034C6943EA040202608B68C3624D
:101CA0000B688362034B984201D10B6903630123E4
:101CB000436110BD002C01400004004000080040BA
:101CC00030B501F01F05012404FA05F3046A9C43B2
:101CD0000462046A01F01F0502FA05F52C43046250
:101CE00030BD000030B5056A25F001050562026AC5
:101CF0004368846924F0700424F003040D682C43C5
:101D000022F002028D682A430D4DA84206D100BF81
:101D100022F00802CD682A4322F00402084DA842AE
:101D200007D123F4807323F400734D692B438D692D
:101D30002B43436084614D684563026230BD0000FF
:101D4000002C014030B5056A25F010050562026AD5
:101D50004368846924F4E04424F440740D6844EA40
:101D6000052422F020028D6842EA05120E4DA84299
:101D700007D100BF22F08002CD6842EA051222F0AE
:101D80004002094DA84209D123F4806323F4006383
:101D90004D6943EA85038D6943EA850343608461A5
:101DA0004D688563026230BD002C014030B5056A84
:101DB00025F480750562026A4368C46924F07004E2
:101DC00024F003040D682C4322F400728D6842EA6B
:101DD00005220F4DA84207D100BF22F40062CD6852
:101DE00042EA052222F48062094DA84209D123F477
:101DF000805323F400534D6943EA05138D6943EA88
:101E000005134360C4614D68C563026230BD0000C4
:101E1000002C014030B5056A25F480550562036A3F
:101E20004468C26922F4E04222F440720D6842EA3A
:101E3000052223F400538D6843EA0533064DA8427A
:101E400004D124F480444D6944EA85144460C2619D
:101E50004D680564036230BD002C014070B50C462E
:101E60001546066A26F0010606628169026A124E6C
:101E7000B04208D0B0F1804F05D0104EB04202D031
:101E80000F4EB04201D1012600E000261EB121F024
:101E90000301294301E041F0010121F0F001F026A6
:101EA00006EA0316314322F00A0204F00A0632431E
:101EB0008161026270BD0000002C014000040040FE
:101EC0000008004070B50C461546066A26F010065C
:101ED00006628169026A21F4407141EA052121F418
:101EE00070414FF4704606EA0336314322F0A002F7
:101EF000A02606EA041632438161026270BD70B505
:101F00000C461546066A26F480760662C169026AA6
:101F100021F00301294321F0F001F02606EA03161F
:101F2000314322F400724FF4007606EA042632436D
:101F3000C161026270BD70B50C461546066A26F492
:101F400080560662C169026A21F4407141EA0521A6
:101F500021F470414FF4704606EA0336314322F40F
:101F600000524FF4005606EA04363243C161026261
:101F700070BD70B505466C6A0020E085E08420469F
:101F8000FFF774FB70BD0168C96821F490710268A5
:101F9000D1600168496921F0010102685161202185
:101FA00080F83A10704710B504462068C06820F0E9
:101FB00040002168C860202084F839002046FFF7DF
:101FC0003BFC002010BD70B5044694F83A0022286E
:101FD0004AD1A068B0F5805F13D1A56A206940B9E5
:101FE00020684068C0F308002880A06A801CA062B6
:101FF00019E020684068C0B22880A06A401CA06236
:1020000011E0206938B920684068C1B2A26A501C4A
:10201000A062117007E02068406800F07F01A26AAA
:10202000501CA0621170E08D401E80B2E085C8B9DE
:102030002068C06820F020002168C8602068C0685F
:1020400020F480702168C8602068406920F0010099
:1020500021684861202084F83A002046FFF7E6FB1B
:10206000002070BD0020FCE70220FAE7014691F84D
:10207000390021282CD18868B0F5805F0FD10A6A19
:102080001088C0F308000B685860086918B9086A1E
:10209000801C086209E0086A401C086205E00B6ABF
:1020A000581C086218780B685860C88C401E80B2B3
:1020B000C88458B90868C06820F080000B68D860F0
:1020C0000868C06840F040000B68D8600020704786
:1020D0000220FCE710B50448FFF7CAFA01220349C1
:1020E0000148FFF76BFB10BD1C0000201000002012
:1020F00000BFFEE702480068C0F3022070470000FE
:102100000CED00E010B5002804DB0A07130E054AA9
:10211000135406E00A07140E034A00F00F031B1FB6
:10212000D45410BD00E400E018ED00E000BF70479B
:102130007FB504460D460020009001900290039068
:102140004FF08040104908600846446000218160DB
:10215000C560FEF7CDFF0020009002200190002016
:10216000029003900C2269460748FEF751FF06488B
:102170000068C06840F0010003490968C8600C218C
:102180000148FFF70DF87FBD9C00002030B587B0F7
:1021900004460D461C216846FEF717F812481349FD
:1021A000086008464560C46000218160016181616A
:1021B000FFF782F960200090204604EBD0714910AF
:1021C0000191022002900020049003900690059057
:1021D000042269460548FFF7EBF804210348FFF79E
:1021E000CBF907B030BD0000000400405C000020C7
:1021F0000024FEF79FFA4FF4E01000F029F8FFF7F3
:10220000E7FB4FF6FF714720FFF792FF42F20F7195
:1022100041F61F40FFF7BAFF15E00B48007800F0C9
:10222000800080B10848007800F03F04240407488B
:10223000008804441023224601210846FFF774FC5D
:10224000002001490870E8E7120000201400002077
:1022500030B58FB005460124282105A8FDF7B5FF4C
:1022600014216846FDF7B1FF012005900004069097
:102270000020079002200C90C1030D910E9505A837
:10228000FEF706FC04460CB100BFFEE70F200090ED
:1022900002200190002002904FF480600390002003
:1022A000049002216846FEF7E3FA04460CB100BF31
:1022B000FEE70FB030BD000000000000000000008D
:1022C000000000000000000000F800000000000016
:1022D00000333000000000100C06100C0600000057
:1022E00000000000000040C07840C0784000043F7B
:1022F00004043F040400007088FC0830000000184B
:1023000020FF211E0000F008F000E018000000216E
:102310001C031E211E0000F00888700000001E2112
:1023200023241927211010160E00000000000000C1
:10233000000000000000000000E01804020000009F
:1023400000071820400000020418E00000000040D0
:10235000201807000000404080F08040400002024A
:10236000010F01020200000000F000000000010166
:10237000011F01010100000000000000000080B00A
:1023800070000000000000000000000000000001DC
:102390000101010101010000000000000000003007
:1023A00030000000000000000000806018040060A1
:1023B00018060100000000E010080810E000000FFF
:1023C000102020100F00001010F800000000002066
:1023D000203F2020000000700808088870000030AE
:1023E0002824222130000030088888483000001856
:1023F000202020110E000000C02010F8000000076F
:102400000424243F240000F80888880808000019E4
:10241000212020110E0000E0108888180000000F15
:10242000112020110E0000380808C83808000000EC
:10243000003F000000000070880808887000001C41
:10244000222121221C0000E010080810E0000000FA
:10245000312222110F00000000C0C0000000000067
:10246000003030000000000000800000000000008C
:102470008060000000000000804020100800000183
:102480000204081020004040404040404000040446
:102490000404040404000008102040800000002010
:1024A000100804020100007048080808F00000004D
:1024B000003036010000C030C828E810E0000718DE
:1024C000272423140B000000C038E0000000203C4B
:1024D00023020227382008F8888888700000203FEF
:1024E000202020110E00C030080808083800071806
:1024F00020202010080008F808080810E000203FFD
:10250000202020100F0008F88888E8081000203FDD
:1025100020202320180008F88888E8081000203FB1
:10252000200003000000C030080808380000071829
:102530002020221E020008F808000008F808203FAA
:10254000210101213F20000808F8080800000020B0
:10255000203F2020000000000808F8080800C08084
:1025600080807F00000008F888C028180800203FFD
:1025700020012638200008F8080000000000203F55
:1025800020202020300008F8F800F8F80800203F4C
:10259000003F003F200008F830C00008F808203F46
:1025A000200007183F00E01008080810E0000F1096
:1025B000202020100F0008F808080808F000203F2D
:1025C000210101010000E01008080810E0000F18C8
:1025D000242438504F0008F8888888887000203FED
:1025E0002000030C302000708808080838000038EC
:1025F000202121221C00180808F8080818000000F3
:10260000203F2000000008F808000008F808001F1C
:10261000202020201F000878880000C8380800000B
:1026200007380E010000F80800F80008F800033C25
:102630000700073C030008186880806818082030ED
:102640002C03032C30200838C800C83808000000CC
:10265000203F2000000010080808C8380800203873
:10266000262120201800000000FE020202000000C7
:10267000007F40404000000C30C00000000000001F
:1026800000010638C00000020202FE000000004007
:1026900040407F000000000004020202040000002D
:1026A000000000000000000000000000000080802A
:1026B0008080808080800002020400000000000012
:1026C00000000000000000008080808000000019F1
:1026D000242222223F2008F8008080000000003FD2
:1026E000112020110E000000008080800000000EEC
:1026F000112020201100000000808088F800000ECA
:10270000112020103F200000808080800000001FEA
:10271000222222221300008080F08888881800205E
:10272000203F202000000000808080808000006B1F
:1027300094949493600008F8008080800000203F0B
:10274000210000203F200080989800000000002019
:10275000203F20200000000000809898000000C06A
:102760008080807F000008F8000080808000203F8B
:1027700024022D302000000808F80000000000208E
:10278000203F202000008080808080808000203FCB
:1027900020003F20003F8080008080800000203F9C
:1027A000210000203F200000808080800000001F6A
:1027B000202020201F00808000808000000080FFFB
:1027C000A12020110E000000008080808000000EFB
:1027D000112020A0FF808080800080808000202049
:1027E0003F212000010000008080808080000033B5
:1027F000242424241900008080E080800000000050
:10280000001F202000008080000000808000001F4A
:10281000202020103F2080808000008080800001E8
:102820000E300806010080800080008080800F301C
:102830000C030C300F00008080008080800000209E
:10284000312E0E31200080808000008080808081C9
:102850008E7018060100008080808080800000213A
:10286000302C2221300000000000807C0202000099
:102870000000003F404000000000FF00000000009A
:102880000000FF0000000002027C80000000004009
:10289000403F0000000000060101020204040000A5
:1028A0000000000000000000000000000000010225
:1028B00003040607080900000000010203040000E9
:1028C000E0280008000000201C000000280100088B
:1028D000FC2800081C000020240700004401000818
:1028E00000000000100000000100000000000000D7
:0C28F00000000000000000000024F400C4
:04000005080000ED02
:00000001FF
