:020000040800F2
:10000000C007002089010008A51500082714000872
:10001000A115000885020008651B0008000000000B
:1000200000000000000000000000000009190008A6
:100030008902000800000000DD1800080B19000804
:10004000A3010008A3010008A3010008A301000800
:10005000A3010008A3010008A3010008A3010008F0
:10006000A3010008A3010008A3010008A3010008E0
:10007000A3010008A3010008A3010008A3010008D0
:10008000A3010008A3010008A3010008A3010008C0
:10009000A3010008A3010008A3010008A3010008B0
:1000A000A3010008A3010008A3010008A3010008A0
:1000B0006D190008A3010008A3010008A3010008AE
:1000C000A3010008A3010008A3010008A301000880
:1000D000A3010008551B0008A3010008A3010008A4
:1000E000D1020008A3010008A301000800F002F8F3
:1000F00000F03AF80AA090E8000C82448344AAF188
:100100000107DA4501D100F02FF8AFF2090EBAE885
:100110000F0013F0010F18BFFB1A43F0010318473B
:100120006021000080210000103A24BF78C878C107
:10013000FAD8520724BF30C830C144BF04680C60ED
:10014000704700000023002400250026103A28BF35
:1001500078C1FBD8520728BF30C148BF0B60704739
:100160001FB51FBD10B510BD00F05AF81146FFF7BE
:10017000F7FF01F017FD00F078F803B4FFF7F2FF86
:1001800003BC01F00DFD0000094880470948004705
:10019000FEE7FEE7FEE7FEE7FEE7FEE7FEE7FEE737
:1001A000FEE7FEE704480549054A064B7047000094
:1001B00015190008ED000008C0010020C00700204C
:1001C000C0030020C003002070474FF0000200B5BC
:1001D000134694469646203922BFA0E80C50A0E86A
:1001E0000C50B1F12001BFF4F7AF090728BFA0E818
:1001F0000C5048BF0CC05DF804EB890028BF40F8E4
:10020000042B08BF704748BF20F8022B11F0804F25
:1002100018BF00F8012B7047704770477047704750
:10022000754600F02BF8AE4605006946534620F0AF
:100230000700854618B020B5FFF7B4FFBDE82040A1
:100240004FF000064FF000074FF000084FF0000B92
:1002500021F00701AC46ACE8C009ACE8C009ACE845
:10026000C009ACE8C0098D46704710B50446AFF32D
:1002700000802046BDE81040FFF77FBF0048704770
:100280006001002000BFFEE7704700B5034603E0B1
:100290004FF47A7000F005F8181EA3F10103F7D1AE
:1002A00000BD00EBC001C9004FF0E0225161002108
:1002B00091610521116100BF4FF0E021096901F44E
:1002C00080310029F8D004214FF0E02211617047FD
:1002D00010B54FF4005000F06FF84FF40050014992
:1002E000086010BD1404014070B50446002594F860
:1002F0002100022803D00420A063012548E02068E3
:10030000006820F00E00216808602068006820F076
:100310000100216808601F492068884201D101203E
:1003200026E01C4914312068884201D110201FE0CA
:10033000184928312068884201D1801518E01549F4
:100340003C312068884201D1801411E011495031BC
:100350002068884202D14FF4803009E00D496431B1
:100360002068884202D14FF4801001E04FF0807085
:10037000084908394860012084F8210000BF0020A6
:1003800084F8200000BF606B10B12046616B884785
:10039000284670BD0800024010B50446B4F5005F61
:1003A00007D11420FFF771FF4FF40051014800F00E
:1003B000A1F910BD000C014010B5044604480068C6
:1003C000204020B1024804602046FFF7E5FF10BD41
:1003D000140401402DE9F8470346002294466EE1DB
:1003E0004FF0010808FA02F4D1F8008008EA04008E
:1003F000A0427DD1DFF8DCA2D1F80480A8EB0A0985
:10040000D0453AD014DCB8F1030F50D009DCB8F174
:10041000000F31D0B8F1010F1CD0B8F1020F49D153
:1004200020E0B8F1110F18D0B8F1120F42D11EE040
:10043000B9F5881F25D006DCB9F5803F20D0B9F585
:10044000801F37D11AE0B9F5001F18D0B9F5041F85
:1004500030D117E0D1F80CC02DE0D1F80C8008F1B4
:10046000040C28E0D1F80C8008F1080C23E0D1F846
:100470000C8008F10C0C1EE000BF00BF00BF00BFE5
:1004800000BF00BFD1F80880B8F1000F02D14FF0D3
:10049000040C0BE0D1F80880B8F1010F03D14FF044
:1004A000080C1C6102E04FF0080C5C6103E04FF0A7
:1004B000000C00E000BF00BFFF2801D8984601E013
:1004C00003F104084646FF2802D84FEA820803E0F9
:1004D000A2F108084FEA88084746D6F800804FF096
:1004E0000F0909FA07F928EA09080CFA07F900E0E8
:1004F00088E048EA0908C6F80080D1F8048008F0CE
:100500008058B8F1805F7DD100BFDFF8CC81D8F88A
:10051000188048F00108DFF8C091C9F81880C84673
:10052000D8F8188008F00108CDF8008000BF00BF9F
:100530004FEAB9384FEA920958F829504FEA8278C1
:100540004FEA18794FF00F0808FA09F825EA08056C
:10055000DFF88881434502D14FF0000816E0DFF84C
:100560008081434502D14FF001080FE0DFF874812C
:10057000434502D14FF0020808E0DFF86C814345A3
:1005800002D14FF0030801E04FF004084FEA8279EE
:100590004FEA197908FA09F848EA0505DFF84C81AD
:1005A0004FEA920948F82950D1F8048008F48038BD
:1005B000B8F5803F0AD1DFF83881D8F8008048EAE2
:1005C0000008DFF82C91C9F8008009E0DFF82081ED
:1005D000D8F8008028EA0008DFF81491C9F80080F4
:1005E000D1F8048008F40038B8F5003F10D1DFF8E6
:1005F000008108F10408D8F8008048EA0008DFF814
:10060000F09000E05AE009F10409C9F800800DE01B
:10061000DFF8DC8008F10408D8F8008028EA000838
:10062000DFF8CC9009F10409C9F80080D1F8048002
:1006300008F48018B8F5801F0ED1DFF8B48008F1F7
:100640000808D8F8008048EA0008DFF8A49009F10B
:100650000809C9F800800DE0DFF8948008F1080867
:10066000D8F8008028EA0008DFF8849009F108092A
:10067000C9F80080D1F8048008F40018B8F5001F0C
:100680000ED1DFF86C8008F10C08D8F8008048EA39
:100690000008DFF85C9009F10C09C9F800800DE052
:1006A000DFF84C8008F10C08D8F8008028EA000830
:1006B000DFF83C9009F10C09C9F80080521CD1F810
:1006C000008028FA02F8B8F1000F7FF489AEBDE887
:1006D000F8870000000011100010024000080140DF
:1006E000000C0140001001400014014008000140CE
:1006F00000040140024693680B400BB1012000E06A
:1007000000207047C2680A400AB1416100E00161FF
:1007100070470AB1016101E00B04036170470000FA
:100720000148006870470000080000200348006886
:10073000034909780844014908607047080000200F
:100740001000002010B50848006840F0100006496D
:100750000860032000F0A4F80F2000F007F800F074
:100760004FF8002010BD000000200240F0B587B017
:10077000054600260027002229461C2000F051F8DB
:100780001C2000F03EF800BF1A48C06940F001008C
:100790001849C8610846C06900F00100009000BF18
:1007A00000BF01A902A800F055F9059E1EB900F08E
:1007B00079F9044602E000F075F944000E48B4FBF4
:1007C000F0F0471E4FF080400C49086040F2E731DE
:1007D0000A48C1604760002101618160816100F0C9
:1007E000EFFB20B9054800F006FC07B0F0BD012082
:1007F000FBE700000010024040420F0020010020F3
:10080000704701460846002809DB00F01F0301225B
:100810009A4043099B0003F1E023C3F8002100BF85
:1008200070472DE9F05F80460D461646002701F01F
:100830009BF9074639462A46334601F00700C0F1C6
:10084000070ABAF1040F02D94FF0040A01E0C0F11F
:10085000070AD14600F1040ABAF1070F02D24FF09D
:10086000000A01E0A0F1030AD4464FF0010A0AFA97
:1008700009FAAAF1010A0AEA020A0AFA0CFA4FF086
:10088000010B0BFA0CFBABF1010B0BEA030B4AEA71
:100890000B042146404601F06FF9BDE8F09F0000CF
:1008A00000BF00F00702064B19684FF6FF0319401E
:1008B000044B0B4343EA0221014B196000BF704710
:1008C0000CED00E00000FA0570B504460D460CB9C9
:1008D000012070BD5A48006800F00700A8420ED2FF
:1008E0005748006820F0070028435549086008462B
:1008F000006800F00700A84201D00120E9E7207855
:1009000000F0020002281DD1207800F00400042825
:1009100005D14C48406840F4E0604A49486020787E
:1009200000F00800082805D14648406840F46050AF
:10093000444948604348406820F0F000A1680843FB
:1009400040494860207800F0010078B360680128D1
:1009500006D13C48006800F4003090B90120B8E7A7
:100960006068022806D13748006800F0007040B97E
:100970000120AEE73348006800F0020008B901200A
:10098000A7E73048406820F00300616808432D491C
:100990004860FFF7C5FE064609E0FFF7C1FE801B71
:1009A00041F28831884202D9032092E707E02548C6
:1009B000406800F00C006168B0EB810FEDD1204879
:1009C000006800F00700A8420ED91D48006820F01A
:1009D000070028431A4908600846006800F007002D
:1009E000A84201D0012074E7207800F00400042818
:1009F00007D11448406820F4E060E16808431149D9
:100A00004860207800F00800082808D10D484068A8
:100A100020F46050216940EAC1000A49486000F0B2
:100A200051F808494968C1F30311074A515CC840AD
:100A30000649086006480068FFF798FE002048E76E
:100A4000002002400010024066220008140000202E
:100A50000C0000200F2202600D4A526802F00302CF
:100A600042600B4A526802F0F0028260084A526803
:100A700002F4E062C260064A526802F46052D20890
:100A80000261044A126802F007020A60704700001F
:100A9000001002400020024001480068704700003A
:100AA0001400002000B5FFF7F7FF04494968C1F3BF
:100AB0000221034A515CC84000BD00000010024002
:100AC00076220008F0B585B00FF26C0C9CE8E010BF
:100AD00001A8A0E8E0101CA52D68009500210022C7
:100AE000002300240020194D696801F00C05F5B1C0
:100AF000042D02D0082D19D101E0154819E001ADEF
:100B0000C1F38346AC5D01F4803555B10F4D6D687E
:100B1000C5F340451DF805200D4D6543B5FBF2F3C7
:100B200002E00C4D04FB05F3184602E000BF084844
:100B300000BF00BF05B0F0BD0203040506070809A9
:100B40000A0B0C0D0E0F10100102000000100240E5
:100B500000127A0000093D00F8B504460CB90120E6
:100B6000F8BD207800F00100002878D0F8484068EF
:100B700000F00C0004280CD0F548406800F00C0090
:100B8000082811D1F248406800F48030B0F5803F69
:100B90000AD1EF48006800F4003000285FD0606898
:100BA00000285CD10120DBE700BF6068B0F5803F22
:100BB00006D1E748006840F48030E549086028E045
:100BC000606858B9E248006820F48030E049086065
:100BD0000846006820F4802008601AE06068B0F5DC
:100BE000A02F0BD1DA48006840F48020D849086073
:100BF0000846006840F4803008600AE0D448006885
:100C000020F48030D24908600846006820F4802033
:100C1000086000BF606888B1FFF782FD054606E006
:100C2000FFF77EFD401B642801D9032098E7C848E0
:100C3000006800F400300028F2D010E0FFF770FDEB
:100C4000054606E0FFF76CFD401B642801D9032030
:100C500086E7BF48006800F400300028F2D1207811
:100C600000F00200022857D1B948406800F00C009B
:100C700050B1B748406800F00C00082818D1B448BB
:100C8000406800F4803098B9B148006800F0020074
:100C900020B12069012801D0012061E7AC4800683B
:100CA00020F0F800616940EAC100A949086033E01A
:100CB0002069E8B10120A7490860FFF731FD05462A
:100CC00006E0FFF72DFD401B022801D9032047E76E
:100CD0009F48006800F002000028F2D09C4800689D
:100CE00020F0F800616940EAC1009949086013E00A
:100CF000002098490860FFF713FD054606E0FFF75E
:100D00000FFD401B022801D9032029E79048006805
:100D100000F002000028F2D1207800F00800082836
:100D20002DD1A069B8B101208B490860FFF7F8FC0C
:100D3000054606E0FFF7F4FC401B022801D903201A
:100D40000EE78348406A00F002000028F2D001203C
:100D500000F0C6FD13E000207F490860FFF7E0FCCB
:100D6000054606E0FFF7DCFC401B022801D9032002
:100D7000F6E67748406A00F002000028F2D12078B9
:100D800000F00400042873D100277148C06900F006
:100D9000805070B900BF6E48C06940F080506C4907
:100DA000C8610846C06900F08050009000BF00BFD5
:100DB00001276A48006800F48070B0B9674800688D
:100DC00040F4807065490860FFF7AAFC054606E01C
:100DD000FFF7A6FC401B642801D90320C0E65F484A
:100DE000006800F480700028F2D000BFE06801289D
:100DF00006D15748006A40F001005549086227E0D3
:100E0000E06858B95248006A20F001005049086271
:100E10000846006A20F00400086219E0E06805282E
:100E20000BD14B48006A40F004004949086208466B
:100E3000006A40F0010008620AE04548006A20F0BC
:100E40000100434908620846006A20F00400086275
:100E500000BFE068A0B1FFF763FC054609E0FFF7BB
:100E60005FFC401B41F28831884202D9032077E6BB
:100E700022E03748006A00F002000028EFD012E0BC
:100E8000FFF74EFC054608E0FFF74AFC401B41F225
:100E90008831884201D9032062E62D48006A00F0BB
:100EA00002000028F0D1012F05D12948C06920F0A7
:100EB00080502749C86100BFE069C8B32448406832
:100EC00000F00C00082860D0E069022848D100201A
:100ED00020490866FFF724FC054606E0FFF720FCE2
:100EE000401B022801D903203AE61948006800F0A7
:100EF00000700028F2D1206AB0F5803F07D1144875
:100F0000406820F40030A168084311494860D4E9E2
:100F1000080108430E49496821F4741108430C493B
:100F2000486001200B490866FFF7FAFB054607E019
:100F30003DE0FFF7F5FB401B022801D903200FE637
:100F40000348006800F000700028F2D02FE0000095
:100F50000010024000004242800442420070004003
:100F6000002014490866FFF7DBFB054606E0FFF7A3
:100F7000D7FB401B022801D90320F1E50E48006889
:100F800000F000700028F2D111E0E069012800D1E2
:100F9000E6E50948466806F48031206A814204D1BA
:100FA00006F47011606A814201D00120D8E500206A
:100FB000D6E5000000004242001002407047704732
:100FC00010B504460CB9012010BD94F83D0028B9B5
:100FD000002084F83C00204600F00CF8022084F841
:100FE0003D00211D206800F0C9FC012084F83D006F
:100FF0000020E9E7704701460868C06840F001003A
:101000000B68D8600868806800F00702062A05D0DF
:101010000868006840F001000B6818600020704705
:10102000704710B5044620680069C0F34000D8B18D
:101030002068C068C0F34000B0B16FF002002168C2
:101040000861012020772068806900F0030018B152
:101050002046FFF7E5FF05E0204600F0ADF820460A
:1010600000F0ABF80020207720680069C0F3800012
:10107000D8B12068C068C0F38000B0B16FF0040040
:1010800021680861022020772068806900F44070A0
:1010900018B12046FFF7C4FF05E0204600F08CF8A9
:1010A000204600F08AF80020207720680069C0F30D
:1010B000C000D8B12068C068C0F3C000B0B16FF004
:1010C000080021680861042020772068C06900F0CA
:1010D000030018B12046FFF7A3FF05E0204600F00B
:1010E0006BF8204600F069F800202077206800693E
:1010F000C0F30010D8B12068C068C0F30010B0B1D0
:101100006FF0100021680861082020772068C0690E
:1011100000F4407018B12046FFF782FF05E020463A
:1011200000F04AF8204600F048F8002020772068B8
:10113000006900F0010058B12068C06800F00100AB
:1011400030B16FF0010021680861204600F036F8E8
:1011500020680069C0F3C01058B12068C068C0F3AF
:10116000C01030B16FF08000216808612046FFF7A1
:1011700025FF20680069C0F3801058B12068C0685E
:10118000C0F3801030B16FF0400021680861204644
:1011900000F019F820680069C0F3401058B12068C9
:1011A000C068C0F3401030B16FF0200021680861C2
:1011B0002046FFF704FF10BD7047704710B5044686
:1011C000FFF7B4FA10BD7047704700002DE9F047F3
:1011D0000446206805682068C668206847694FF0A3
:1011E0000008C14605F00F08B8F1000F0AD105F05C
:1011F000200038B106F0200020B1204600F022FC8B
:10120000BDE8F087B8F1000F6DD007F0010018B904
:1012100006F49070002866D005F0010030B106F4A5
:10122000807018B1E06B40F00100E06305F004004D
:1012300030B107F0010018B1E06B40F00200E0634C
:1012400005F0020030B107F0010018B1E06B40F08A
:101250000400E06305F0080030B107F0010018B1A8
:10126000E06B40F00800E063E06B68B305F020003D
:1012700028B106F0200010B1204600F0E3FB206802
:101280004069C0F38019E06B00F0080010B9B9F1B3
:10129000000F22D0204600F0B5FB2068406900F026
:1012A0004000B0B12068406920F0400021684861EA
:1012B000606B50B11748616B4863606BFFF714F8BF
:1012C00010B1606B416B88470CE02046FFF77CFF54
:1012D00008E02046FFF778FF04E02046FFF774FFA0
:1012E0000020E0638CE705F0800030B106F080005C
:1012F00018B1204600F0F9FB82E705F0400030B15C
:1013000006F0400018B1204600F08CFB78E700BFE3
:1013100076E70000F119000810B5034693F83A008B
:1013200020282FD101B10AB9012010BD00BF93F8C8
:101330003800012801D10220F7E7012083F83800A6
:1013400000BF99629A85DA850020D863222083F84D
:101350003A0000BF002083F8380000BF1868C0685A
:1013600040F480701C68E0601868406940F001003B
:101370001C6860611868C06840F020001C68E0606C
:101380000020D2E70220D0E710B5044620492068AB
:1013900088423BD11F48008800F4004088BB1D48AC
:1013A000008800F4804070B11B4800780A2803D000
:1013B00000201849088024E01648008840F40040C6
:1013C000144908801DE0144800780D2806D1114802
:1013D000008840F480400F49088012E00E480078F1
:1013E0000C490988C1F30D010C4A50540948008882
:1013F000401C0849088008460088C72801DD0020F5
:101400000880012204490648FFF786FF10BD00004E
:1014100000380140040000200600002018000020D1
:10142000E0000020704700BFFEE7000000B585B077
:1014300000BF00BF0D48806940F008000B4988617B
:101440000846806900F00800009000BF00BF00BFA0
:101450000020029088140190022003900320049041
:1014600001A90348FEF7B6FF05B000BD0010024019
:10147000000C014010B54FF480510D48FFF73AF9C8
:10148000012813D11420FEF700FF4FF480510848C3
:10149000FFF730F9012809D100BF4FF4805104480B
:1014A000FFF728F90128F8D0012010BD0020FCE743
:1014B000000C014000B585B000BF00BF1248806934
:1014C00040F00800104988610846806900F0080073
:1014D000009000BF00BF00BF4FF4005001900B48C8
:1014E0000290022003900320049001A90848FEF70F
:1014F00071FF002211462820FFF793F92820FFF7FB
:1015000080F905B000BD000000100240000011107D
:10151000000C014000B585B000BF00BF1E488069C7
:1015200040F004001C4988610846806900F004000E
:10153000009000BF00BF00BF00BF00BF0846806929
:1015400040F0040088610846806900F004000090C3
:1015500000BF00BF00BF0120019002900020039057
:101560000320049001A90D48FEF734FF02200190EA
:1015700001A90A48FEF72EFF00BF012211460748C5
:10158000FFF7C7F800BF00BF012202210348FFF7A1
:10159000C0F800BF05B000BD0010024000080140C7
:1015A00000BFFEE7704770B500240EE00021204622
:1015B00000F015F9002504E0002000F07FF9681C18
:1015C000C5B2802DF8DB601CC4B2082CEEDB70BD08
:1015D00000B585B000BF00BF1748806940F0080023
:1015E000154988610846806900F00800009000BF36
:1015F00000BF00BF112002900320049088150190C5
:1016000001A90E48FEF7E6FE4FF40070019001A913
:101610000A48FEF7DFFE00BF012211020748FFF76C
:1016200078F800BF00BF012251020448FFF771F8AB
:1016300000BF05B000BD000000100240000C0140DA
:1016400070B50546002422E000BF802020412840DC
:1016500028B1012251021748FFF75BF805E000228C
:101660004FF400711348FFF754F800BF00BF012288
:1016700011021048FFF74DF800BF00BF00224FF4E1
:1016800080710C48FFF745F800BF601CC4B2082CFD
:10169000DADB00BF012211020648FFF73AF800BF6B
:1016A00000BF00224FF480710248FFF732F800BFFC
:1016B00070BD0000000C014010B500BF01225102B6
:1016C0000D48FFF726F800BF00BF012211020A48AB
:1016D000FFF71FF800BF00BF00224FF4007106485B
:1016E000FFF717F800BF00BF00224FF480710248D7
:1016F000FFF70FF800BF10BD000C014010B500BF90
:1017000000224FF400710948FFF703F800BF00BF43
:10171000012211020548FEF7FCFF00BF00BF0122B5
:1017200051020248FEF7F5FF00BF10BD000C01405A
:1017300070B5002406E0002500E06D1CB5F57A7F49
:10174000FBD3641CB4F57A7FF5D3FFF741FFAE20DD
:1017500000F0A4F8D52000F0A1F8802000F09EF859
:10176000A82000F09BF83F2000F098F8D32000F06C
:1017700095F8002000F092F8402000F08FF8A120AA
:1017800000F08CF8C82000F089F8DA2000F086F824
:10179000122000F083F8812000F080F8CF2000F0C4
:1017A0007DF8D92000F07AF8F12000F077F8DB20FE
:1017B00000F074F8302000F071F8A42000F06EF80A
:1017C000A62000F06BF88D2000F068F8142000F0DF
:1017D00065F8AF2000F062F8FFF7E5FE70BD70B568
:1017E00005460C4645F0B00000F058F8102141EADB
:1017F000141000F053F804F00F0000F04FF870BD23
:101800002DE9F04105460E461746721ED206110E0E
:101810006A1E5206100EFFF7E2FF002409E0A7F14E
:101820002001134A02EB0111085D00F047F8601C2B
:10183000C4B2082CF3DB721ED206110E6A1E0123FD
:1018400003EB4202D0B2FFF7CAFF00240BE0A7F17E
:101850002001074A02EB011204F10801505C00F07C
:101860002DF8601CC4B2082CF1DBBDE8F08100004B
:10187000761C00082DE9F04107460E461546002467
:1018800007E02A5D3019C1B23846FFF7B9FF601C86
:10189000C4B2285D0028F4D1BDE8F08110B504463B
:1018A000FFF70AFF7820FFF7CBFE0020FFF7C8FE06
:1018B0002046FFF7C5FEFFF721FF10BD10B5044617
:1018C000FFF7FAFE7820FFF7BBFE4020FFF7B8FED7
:1018D0002046FFF7B5FEFFF711FF10BD704700006F
:1018E00008B508490968C9084FF47A72B1FBF2F1EA
:1018F0004143009100BF00BF00994A1E0092002999
:10190000F9D108BD14000020704710B5FEF70EFF96
:1019100010BD00001148006840F001000F49086048
:10192000084640680E4908400C494860084600686F
:101930000C490840094908600846006820F48020E6
:1019400008600846406820F4FE0048604FF41F001D
:101950008860C80304490860704700000010024016
:101960000000FFF8FFFFF6FE08ED00E010B50248AA
:10197000FFF757FB10BD00002001002010B50268E2
:10198000184B984208D0B0F1804F05D0164B9842C2
:1019900002D0164B984203D122F070024B681A43D2
:1019A000104B984208D0B0F1804F05D00E4B9842B2
:1019B00002D00E4B984203D122F44072CB681A43F6
:1019C00022F080034C6943EA040202608B68C36220
:1019D0000B688362034B984201D10B6903630123B7
:1019E000436110BD002C014000040040000800408D
:1019F00070B505466C6A0020E085E0842046FFF75C
:101A0000E3FB70BD0168C96821F490710268D16080
:101A10000168496921F0010102685161202180F8C3
:101A20003A10704710B504462068C06820F04000A6
:101A30002168C860202084F839002046FFF7F2FCB6
:101A4000002010BD70B5044694F83A0022284AD10F
:101A5000A068B0F5805F13D1A56A206940B92068FD
:101A60004068C0F308002880A06A801CA06219E0CA
:101A700020684068C0B22880A06A401CA06211E0C3
:101A8000206938B920684068C1B2A26A501CA062BF
:101A9000117007E02068406800F07F01A26A501CC6
:101AA000A0621170E08D401E80B2E085C8B9206848
:101AB000C06820F020002168C8602068C06820F459
:101AC00080702168C8602068406920F001002168AA
:101AD0004861202084F83A002046FFF755FC00209A
:101AE00070BD0020FCE70220FAE7014691F83900BA
:101AF00021282CD18868B0F5805F0FD10A6A108840
:101B0000C0F308000B685860086918B9086A801C9F
:101B1000086209E0086A401C086205E00B6A581C6C
:101B2000086218780B685860C88C401E80B2C88460
:101B300058B90868C06820F080000B68D860086851
:101B4000C06840F040000B68D86000207047022059
:101B5000FCE7000010B50248FFF738FB10BD00009D
:101B6000E000002000BFFEE702480068C0F302204A
:101B7000704700000CED00E010B5002804DB0A07F8
:101B8000130E054A135406E00A07140E034A00F028
:101B90000F031B1FD45410BD00E400E018ED00E05B
:101BA00000BF7047FEF7CEFD4FF4E01000F030F8B4
:101BB000FFF7BEFDFFF7AEFCFFF738FCFFF77AFC3E
:101BC00016E0FFF757FC98B100BF01210948FEF766
:101BD00099FD00BF08A201210846FFF74BFE4FF414
:101BE000FA70FEF752FB07A201210846FFF742FEFA
:101BF000E7E70000000801404B45593020444F57AB
:101C00004E00000020202020202020202000000066
:101C100030B58FB005460124282105A8FEF7D5FA76
:101C200014216846FEF7D1FA0120059000040690C1
:101C30000020079002200C90C1030D910E9505A87D
:101C4000FEF78AFF04460CB100BFFEE70F200090AC
:101C500002200190002002904FF480600390002049
:101C6000049002216846FEF72FFE04460CB100BF27
:101C7000FEE70FB030BD00000000000000000000D3
:101C8000000000000000000000F80000000000005C
:101C900000333000000000100C06100C060000009D
:101CA00000000000000040C07840C0784000043FC1
:101CB00004043F040400007088FC08300000001891
:101CC00020FF211E0000F008F000E01800000021B5
:101CD0001C031E211E0000F00888700000001E2159
:101CE00023241927211010160E0000000000000008
:101CF000000000000000000000E0180402000000E6
:101D000000071820400000020418E0000000004016
:101D1000201807000000404080F080404000020290
:101D2000010F01020200000000F0000000000101AC
:101D3000011F01010100000000000000000080B050
:101D40007000000000000000000000000000000122
:101D5000010101010101000000000000000000304D
:101D600030000000000000000000806018040060E7
:101D700018060100000000E010080810E000000F45
:101D8000102020100F00001010F8000000000020AC
:101D9000203F2020000000700808088870000030F4
:101DA000282422213000003008888848300000189C
:101DB000202020110E000000C02010F800000007B5
:101DC0000424243F240000F808888808080000192B
:101DD000212020110E0000E0108888180000000F5C
:101DE000112020110E0000380808C8380800000033
:101DF000003F000000000070880808887000001C88
:101E0000222121221C0000E010080810E000000040
:101E1000312222110F00000000C0C00000000000AD
:101E200000303000000000000080000000000000D2
:101E300080600000000000008040201008000001C9
:101E4000020408102000404040404040400004048C
:101E50000404040404000008102040800000002056
:101E6000100804020100007048080808F000000093
:101E7000003036010000C030C828E810E000071824
:101E8000272423140B000000C038E0000000203C91
:101E900023020227382008F8888888700000203F35
:101EA000202020110E00C03008080808380007184C
:101EB00020202010080008F808080810E000203F43
:101EC000202020100F0008F88888E8081000203F24
:101ED00020202320180008F88888E8081000203FF8
:101EE000200003000000C030080808380000071870
:101EF0002020221E020008F808000008F808203FF1
:101F0000210101213F20000808F8080800000020F6
:101F1000203F2020000000000808F8080800C080CA
:101F200080807F00000008F888C028180800203F43
:101F300020012638200008F8080000000000203F9B
:101F400020202020300008F8F800F8F80800203F92
:101F5000003F003F200008F830C00008F808203F8C
:101F6000200007183F00E01008080810E0000F10DC
:101F7000202020100F0008F808080808F000203F73
:101F8000210101010000E01008080810E0000F180E
:101F9000242438504F0008F8888888887000203F33
:101FA0002000030C30200070880808083800003832
:101FB000202121221C00180808F808081800000039
:101FC000203F2000000008F808000008F808001F63
:101FD000202020201F000878880000C83808000052
:101FE00007380E010000F80800F80008F800033C6C
:101FF0000700073C03000818688080681808203034
:102000002C03032C30200838C800C8380800000012
:10201000203F2000000010080808C83808002038B9
:10202000262120201800000000FE0202020000000D
:10203000007F40404000000C30C000000000000065
:1020400000010638C00000020202FE00000000404D
:1020500040407F0000000000040202020400000073
:102060000000000000000000000000000000808070
:102070008080808080800002020400000000000058
:102080000000000000000000808080800000001937
:10209000242222223F2008F8008080000000003F18
:1020A000112020110E000000008080800000000E32
:1020B000112020201100000000808088F800000E10
:1020C000112020103F200000808080800000001F31
:1020D000222222221300008080F0888888180020A5
:1020E000203F202000000000808080808000006B66
:1020F00094949493600008F8008080800000203F52
:10210000210000203F20008098980000000000205F
:10211000203F20200000000000809898000000C0B0
:102120008080807F000008F8000080808000203FD1
:1021300024022D302000000808F8000000000020D4
:10214000203F202000008080808080808000203F11
:1021500020003F20003F8080008080800000203FE2
:10216000210000203F200000808080800000001FB0
:10217000202020201F00808000808000000080FF41
:10218000A12020110E000000008080808000000E41
:10219000112020A0FF80808080008080800020208F
:1021A0003F212000010000008080808080000033FB
:1021B000242424241900008080E080800000000096
:1021C000001F202000008080000000808000001F91
:1021D000202020103F20808080000080808000012F
:1021E0000E300806010080800080008080800F3063
:1021F0000C030C300F0000808000808080000020E5
:10220000312E0E312000808080000080808080810F
:102210008E70180601000080808080808000002180
:10222000302C2221300000000000807C02020000DF
:102230000000003F404000000000FF0000000000E0
:102240000000FF0000000002027C8000000000404F
:10225000403F0000000000060101020204040000EB
:10226000000000000000000000000000000001026B
:10227000030406070809000000000102030400002F
:10228000A02200080000002018000000280100081B
:10229000B822000818000020A80700004401000828
:1022A000000000000000000000000000100000001E
:0822B000010000000024F4000D
:04000005080000ED02
:00000001FF
